:020000040000FA
:10000000E230E431E6328033B218B419B61AB81BC4
:100010000000FF3F6221642366250027323134331C
:10002000363538372114020003000400FF3F0F3437
:100030000F250F330A344D00790020005000720064
:100040006F006700720061006D002C0020007600D8
:1000500031002E0030000000622164236625002755
:1000600032313433363538370000FF3F41342034E5
:100070004D3465347334733461346734653400341B
:084000000100020003000400AE
:00000001FF
