:020000040000FA
:100040000000E001E001C001FF01FF01DF01F1015B
:10005000F101D101F901F901D901FF01E101F20139
:10006000F801000E410E410EFF0E350E000E210E5E
:10007000000EB80E000E3B0E3D0E3C0EFF0E010EA4
:100080006001600140017F017F015F017101710129
:1000900051017901790159017F01610172017801F2
:1000A0000004E0041F04FF041104F1041904F9041E
:1000B0000005E0051F05FF051105F1051905F90506
:1000C0000006E0061F06FF061106F1061906F906EE
:1000D0000007E0071F07FF071107F1071907F907D6
:1000E000000900092109B809740976097509600039
:1000F0007F00710079007F0061007200780040008D
:1001000004006002600240027F027F025F0271020F
:10011000710251027902790259027F026102720270
:100120007802E000E000C000FF00FF00DF00F10007
:10013000F100D100F900F900D900FF00E100F20060
:10014000F800E002E002C002FF02FF02DF02F1025B
:10015000F102D102F902F902D902FF02E102F20230
:10016000F802000A000A210AB80AB50AB70AB60A54
:10017000A002A0028002BF02BF029F02B102B10230
:100180009102B902B9029902BF02A102B202B802F9
:10019000E003E003C003FF03FF03DF03F103F10308
:1001A000D103F903F903D903FF03E103F203F803D1
:1001B000000D410D410DFF0DDC0D000D210D000D59
:1001C000B80D000DE20DE40DE30DFF0D010D200152
:1001D000200100013F013F011F01310131011101E7
:1001E0003901390119013F01210132013801200291
:1001F000200200023F023F021F02310231021102BF
:100200003902390219023F02210232023802000C7F
:10021000410C410CFF0C0B0C010C210C000CB80C18
:10022000000C110C130C120CFF0C010C20003F00F1
:10023000310039003F002100320038000000020088
:10024000000841084108FF082408010821080008A7
:10025000B80800082A082C082B08FF0801081E000F
:100260006003600340037F037F035F037103710337
:1002700051037903790359037F0361037203780300
:100280002003200300033F033F031F033103310317
:1002900011033903390319033F03210332033803E0
:1002A0000300A000A0008000BF00BF009F00B100BD
:1002B000B1009100B900B9009900BF00A100B200DF
:1002C000B800A003A0038003BF03BF039F03B103D3
:1002D000B1039103B903B9039903BF03A103B203A7
:1002E000B8030600070006000700000F410F410F8A
:1002F000FF0F790F010F210F000FB80F000F7F0FB5
:10030000810F800FFF0F010FA001A0018001BF012D
:10031000BF019F01B101B1019101B901B901990179
:10032000BF01A101B201B80110001000A304C30471
:10033000A304C3042100B800100011001600170028
:0A0340001000110012001F001E0043
:00000001FF
