:020000040000FA
:100040000000E001E001C001FF01FF01DF01F1015B
:10005000F101D101F901F901D901F101F101D10158
:10006000FF01E101F201F801F301000E410E410E22
:10007000FF0E390E000E210E000EDB0E000E030ED9
:10008000020E410E430E420EFF0E010E6001600192
:1000900040017F017F015F0171017101510179010F
:1000A000790159017101710151017F0161017201F1
:1000B000780173010004E0041F04FF041104F1043B
:1000C0001904F9041104F1040005E0051F05FF05FA
:1000D0001105F1051905F9051105F1050006E00600
:1000E0001F06FF061106F1061906F9061106F106AC
:1000F0000007E0071F07FF071107F1071907F907B6
:100100001107F107000900092109DB090309870923
:100110008909880960007F00710079007100790009
:100120007F006100720078007300400004006002EC
:10013000600240027F027F025F027102710251027F
:100140007902790259027102710251027F02610241
:10015000720278027302E000E000C000FF00FF00BE
:10016000DF00F100F100D100F900F900D900F10041
:10017000F100D100FF00E100F200F800F300E0021E
:10018000E002C002FF02FF02DF02F102F102D1022F
:10019000F902F902D902F102F102D102FF02E102F1
:1001A000F202F802F302000A000A210ADB0A030A3B
:1001B000D80ADA0AD90AA002A0028002BF02BF024E
:1001C0009F02B102B1029102B902B9029902B102D1
:1001D000B1029102BF02A102B202B802B302E0036F
:1001E000E003C003FF03FF03DF03F103F103D103C7
:1001F000F903F903D903F103F103D103FF03E10389
:10020000F203F803F303000D410D410DFF0D070D3F
:10021000010D210D000DDB0D000D030D020D0F0D65
:10022000110D100DFF0D010D2001200100013F01F6
:100230003F011F013101310111013901390119015A
:100240003101310111013F01210132013801330136
:100250002002200200023F023F021F02310231024F
:1002600011023902390219023102310211023F0230
:100270002102320238023302000C410C410CFF0C07
:10028000400C010C210C000CDB0C000C030C020CCC
:10029000480C4A0C490CFF0C010C20003F003100B7
:1002A0003900310039003F002100320038003300AE
:1002B00000000200000841084108FF085E0801082C
:1002C00021080008DB08000803080208660868081F
:1002D0006708FF08010800086003600340037F030C
:1002E0007F035F037103710351037903790359039A
:1002F0007103710351037F03610372037803730376
:100300002003200300033F033F031F033103310396
:1003100011033903390319033103310311033F0377
:1003200021033203380333030300A000A000800040
:10033000BF00BF009F00B100B1009100B900B9003B
:100340009900B100B1009100BF00A100B200B80057
:10035000B300A003A0038003BF03BF039F03B10347
:10036000B1039103B903B9039903B103B103910335
:10037000BF03A103B203B803B303060007000800DC
:100380000900000F410F410FFF0FC50F010F210F93
:10039000000FDB0F000F030F020FCD0FCF0FCE0F9B
:1003A000FF0F010FA001A0018001BF01BF019F014C
:1003B000B101B1019101B901B9019901B101B101D5
:1003C0009101BF01A101B201B801B301A404C404A9
:1003D000A404C404A405C404A304A304A305A3049F
:0803E000A3042100DB0003026D
:0403E8000008000801
:0403EC00A304F7016E
:0803F000FA01A304FA0BFA0163
:0603F800A304FD0BFD0152
:08040000A304A305A3050000FD
:00000001FF
