:020000040000FA
:10000000000000000234003410340034283400347E
:1000100007340034173400343A34003407340034E1
:100020000134293403342A340034013400340134D7
:0C0030003B3403343C34003421340034F1
:100040000000003E413E413EFF3E253E003E213E37
:10005000003E183E023E013E003E2D3E2F3E2E3E0B
:10006000FF3E013E800780070007FF07FF077F076D
:10007000A107A1072107A907A9072907B107B10708
:100080003107FF078107A207A807B30700394139E5
:100090004139FF394A3900392139003918390239D3
:1000A00001390039523954395339FF390139800542
:1000B00080050005FF05FF057F05A105A1052105B8
:1000C000A905A9052905B105B1053105FF0581057A
:1000D000A205A805B305001080137F10FF1321109F
:1000E000A1132910A9133110B113001480177F1424
:1000F000FF172114A1172914A9173114B1170018DB
:10010000801B7F18FF1B2118A11B2918A91B311860
:10011000B11B001C801F7F1CFF1F211CA11F291C5D
:10012000A91F311CB11F0020FF2721201822012008
:1001300098209A2099208001FF01A101A901B10115
:10014000B901FF018101A201A801B301030164000B
:10015000800980090009FF09FF097F09A109A10998
:100160002109A909A9092909B109B1093109FF0919
:100170008109A209A809B309800380030003FF03D2
:10018000FF037F03A103A1032103A903A9032903FB
:10019000B103B1033103FF038103A203A803B30337
:1001A000800B800B000BFF0BFF0B7F0BA10BA10B38
:1001B000210BA90BA90B290BB10BB10B310BFF0BB9
:1001C000810BA20BA80BB30B0028FF2F2128182AA4
:1001D0000128E928EB28EA28800A800A000AFF0A99
:1001E000FF0A7F0AA10AA10A210AA90AA90A290A63
:1001F000B10AB10A310AFF0A810AA20AA80AB30A9F
:10020000800F800F000FFF0FFF0F7F0FA10FA10FB7
:10021000210FA90FA90F290FB10FB10F310FFF0F38
:10022000810FA20FA80FB30F003841384138FF38B3
:1002300018380138213800381838023801380038A9
:10024000203822382138FF38013880048004000427
:10025000FF04FF047F04A104A1042104A904A9044C
:100260002904B104B1043104FF048104A204A804E8
:10027000B304800880080008FF08FF087F08A10871
:10028000A1082108A908A9082908B108B10831085E
:10029000FF088108A208A808B308003041304130A7
:1002A000FF30513001302130003018300230013041
:1002B000003059305B305A30FF3001308000FF0091
:1002C000A100A900B100B900FF008100A200A800B0
:1002D000B300000062000900003441344134FF34AF
:1002E00070340134213400341834023401340034C1
:1002F00078347A347934FF3401340800800D800D6D
:10030000000DFF0DFF0D7F0DA10DA10D210DA90DFC
:10031000A90D290DB10DB10D310DFF0D810DA20DEE
:10032000A80DB30D800C800C000CFF0CFF0C7F0C93
:10033000A10CA10C210CA90CA90C290CB10CB10C1D
:10034000310CFF0C810CA20CA80CB30C6300003C18
:10035000413C413CFF3CAB3C013C213C003C183C57
:10036000023C013C003CB33CB53CB43CFF3C013C8E
:10037000800280020002FF02FF027F02A102A102AE
:100380002102A902A9022902B102B1023102FF022F
:100390008102A202A802B302800E800E000EFF0EA0
:1003A000FF0E7F0EA10EA10E210EA90EA90E290E81
:1003B000B10EB10E310EFF0E810EA20EA80EB30EBD
:1003C000003A413A413AFF3AE43A013A213A003AD6
:1003D000183A023A013A003AEC3AEE3AED3AFF3A6C
:1003E000013A800680060006FF06FF067F06A1068A
:1003F000A1062106A906A9062906B106B1063106FD
:10040000FF068106A206A806B30683120313831211
:100410000313831203138A110A128A110A128A1112
:100420000A128A110A128A110A1221001802010006
:080430008A110A121A2A1A02AD
:0C1000008A110A128A150A128A150A12B7
:00000001FF
