:10000000FF0FFF0FFE0FFE0FFD0FFD0FFC0FFC0F8C
:10001000FB0FFB0FFA0FFA0FF90FF90FF80FF80F9C
:10002000F70FF70FF60FF60FF50FF50FF40FF40FAC
:10003000F30FF30FF20FF20FF20FF20FF10FF10FB8
:10004000F00FF00FEF0FEF0FEE0FEE0FED0FED0FC4
:10005000EC0FEC0FEB0FEB0FEA0FEA0FE90FE90FD4
:10006000E80FE80FE70FE70FE60FE60FE50FE50FE4
:10007000E40FE40FE30FE30FE20FE20FE10FE10FF4
:10008000E00FE00FDF0FDF0FDE0FDE0FDD0FDD0F04
:10009000DC0FDC0FDB0FDB0FD90FD90FD80FD80F18
:1000A000D70FD70FD60FD60FD50FD50FD30FD30F2E
:1000B000D20FD20FD10FD10FD00FD00FCF0FCF0F44
:1000C000CE0FCE0FCD0FCD0FCC0FCC0FCB0FCB0F54
:1000D000CA0FCA0FC90FC90FC80FC80FC70FC70F64
:1000E000C60FC60FC50FC50FC40FC40FC30FC30F74
:1000F000C20FC20FC10FC10FBF0FBF0FBE0FBE0F88
:10010000BC0FBC0FBB0FBB0FBA0FBA0FB30FB30FAF
:10011000B20FB20FB10FB10FAF0FAF0FAE0FAE0FE7
:10012000AD0FAD0FAC0FAC0FAB0FAB0FA20FA20F0B
:10013000A10FA10FA00FA00F9F0F9F0F9E0F9E0F4B
:100140009D0F9D0F7F0F7F0F9A0F9A0F990F990F99
:10015000980F980F970F970F960F960F950F950F73
:10016000940F940F930F930F920F920F7E0F7E0FA9
:10017000910F910F900F900F8F0F8F0F8E0F8E0F8B
:100180008D0F8D0F8C0F8C0F8B0F8B0F8A0F8A0F9B
:10019000890F890F7D0F7D0F880F880F870F870FBD
:1001A000860F860F850F850F840F840F830F830FB3
:1001B000820F820F810F810F800F800F760F760FD5
:1001C000750F750F740F740F730F730F720F720F1B
:1001D000710F710F700F700F6F0F6F0F6E0F6E0F2B
:1001E0006D0F6D0F6C0F6C0F6B0F6B0F6A0F6A0F3B
:1001F000690F690F680F680F670F670F660F660F4B
:10020000650F650F640F640F630F630F620F620F5A
:10021000610F610F600F600F5E0F5E0F5D0F5D0F6E
:100220005C0F5C0F5A0F5A0F590F590F580F580F88
:10023000570F570F560F560F550F550F540F540F9A
:10024000530F530F520F520F510F510F500F500FAA
:100250004E0F4E0F4D0F4D0F4C0F4C0F4B0F4B0FC2
:100260004A0F4A0F490F490F480F480F460F460FD4
:10027000450F450F440F440F430F430F420F420FEA
:10028000410F410F400F400F3E0F3E0F3D0F3D0FFE
:100290003C0F3C0F3B0F3B0F3A0F3A0F390F390F12
:1002A000380F380F370F370F360F360F350F350F22
:1002B000340F340F330F330F320F320F310F310F32
:1002C000300F300F2E0F2E0F2D0F2D0F2C0F2C0F48
:1002D0002B0F2B0F2A0F2A0F290F290F280F280F5A
:1002E000270F270F260F260F250F250F240F240F6A
:1002F000230F230F220F220F210F210F200F200F7A
:100300001F0F1F0F1E0F1E0F1D0F1D0F1C0F1C0F89
:100310001B0F1B0F1A0F1A0F190F190F180F180F99
:10032000170F170F160F160F150F150F140F140FA9
:10033000130F130F120F120F110F110F100F100FB9
:100340000F0F0F0F0E0F0E0F0D0F0D0F0C0F0C0FC9
:100350000B0F0B0F0A0F0A0F080F080F070F070FDD
:10036000060F060F050F050F040F040F030F030FF1
:10037000020F020F010F010F000F000F070007000F
:100380000600060007000700070007000600060039
:100390000600060005000500050005000400040035
:1003A0000400040003000300020002000200020037
:1003B000010001000100010000000000070007002B
:1003C0000700070006000600050005000400040001
:1003D0000200020002000200000000000700070007
:1003E00006000600040004000300030001000100F1
:1003F00000000000040004000300030002000200EB
:1004000001000100000000000700070006000600D0
:1004100005000500040004000300030002000200C0
:1004200001000100000000000000000005000500C0
:1004300004000400030003000200020001000100A8
:100440000000000000000000070007000600060092
:100450000400040004000400030003000300030080
:100460000200020002000200010001000100010080
:100470000000000000000000070007000500050064
:100480000400040003000300020002000200020056
:10049000020002000100010000000000060006004A
:1004A0000500050004000400030003000200020030
:1004B0000100010000000000070007000600060020
:1004C0000500050005000500050005000500050004
:1004D00005000500050005000400040004000400F8
:1004E00003000300030003000200020002000200F8
:1004F00002000200020002000200020002000200EC
:1005000001000100000000000700070006000600CF
:1005100005000500040004000300030002000200BF
:1005200001000100000000000700070006000600AF
:10053000050005000400040003000300020002009F
:10054000010001000000000001000700000006009B
:100550000400050003000400020003000100020083
:100560000100020001000200010002000000000082
:10057000070007000200060003000300020002005B
:100580000100010000000000050005000500050055
:100590000400040004000400030003000200020041
:1005A0000100010000000000050005000500050035
:1005B0000400040004000400030003000200020021
:1005C000010001000000000007000700060006000F
:1005D00005000500040004000300030002000200FF
:1005E0000200020002000200010001000000000001
:1005F00007000700060006000500050004000400CF
:1006000002000200010001000000000007000700D6
:1006100006000600050005000400040003000300B6
:1006200002000200010001000000000003000300BE
:1006300002000200010001000000000003000300AE
:10064000020002000100010000000000030003009E
:100650000200020001000100000000000700070086
:100660000600060005000500040004000300030066
:100670000200020001000100000000000700070066
:100680000600060005000500040004000300030046
:100690000200020001000100000000000700070046
:1006A0000600060005000500040004000300030026
:1006B0000200020001000100000000000700070026
:1006C000060006000500050004000400000000000C
:1006D0000000000001000100010001000200020012
:1006E00002000200030002000300030003000300F5
:1006F00002000300040004000400040005000500DB
:1007000005000500050005000500050006000600BF
:1007100000000000000000000100010001000100D5
:1007200002000200020002000300030003000300B5
:10073000040004000500050006000600070007008D
:1007400000000000000000000000000001000100A7
:100750000100010007000100020002000200020087
:10076000030003000300030003000300040004006F
:100770000400040004000400050005000500050055
:100780000600060006000600060006000700070037
:100790000700070000000000000000000100010049
:1007A0000100010002000200020002000300030039
:1007B0000300030004000400040004000500050019
:1007C00005000500060006000600060007000700F9
:1007D000070007000000000000000000000000000B
:1007E00001000100010001000200020002000200FD
:1007F00003000300030003000400040005000500DB
:1008000006000600070007000700070000000000C0
:1008100000000000010001000100010002000200D0
:1008200002000200030003000300030004000400B0
:100830000400040005000500050005000600060090
:10084000060006000700070000000000000000008E
:10085000010001000100010002000200020002008C
:100860000300030004000400000000000100010078
:10087000020002000300030004000400050005005C
:10088000060006000700070000000000000000004E
:10089000010001000100010002000200020002004C
:1008A000030003000300030004000400040004002C
:1008B000050005000500050006000600060006000C
:1008C000070007000700070000000000010001000A
:1008D00002000200030003000400040005000500FC
:0808E0000600060007000700F6
:00000001FF
