:020000040000FA
:020000000000FE
:020004000200F8
:020008000400F2
:02000C000600EC
:020010000800E6
:020014000A00E0
:020018000C00DA
:02001C000E00D4
:020020001000CE
:020024001200C8
:020028001400C2
:02002C001600BC
:020030001800B6
:020034001A00B0
:020038001C00AA
:02003C001E00A4
:0200400020009E
:02004400220098
:02004800240092
:02004C0026008C
:02005000280086
:020054002A0080
:020058002C007A
:02005C002E0074
:0200600030006E
:02006400320068
:02006800340062
:02006C0036005C
:02007000380056
:020074003A0050
:020078003C004A
:02007C003E0044
:0200800040003E
:02008400420038
:02008800440032
:02008C0046002C
:02009000480026
:020094004A0020
:020098004C001A
:02009C004E0014
:0200A00050000E
:0200A400520008
:0200A800540002
:0200AC005600FC
:0200B0005800F6
:0200B4005A00F0
:0200B8005C00EA
:0200BC005E00E4
:0200C0006000DE
:0200C4006200D8
:0200C8006400D2
:0200CC006600CC
:0200D0006800C6
:0200D4006A00C0
:0200D8006C00BA
:0200DC006E00B4
:0200E0007000AE
:0200E4007200A8
:0200E8007400A2
:0200EC0076009C
:0200F000780096
:0200F4007A0090
:0200F8007C008A
:0200FC007E0084
:0201000080007D
:02010400820077
:02010800840071
:02010C0086006B
:02011000880065
:020114008A005F
:020118008C0059
:02011C008E0053
:0201200090004D
:02012400920047
:02012800940041
:02012C0096003B
:02013000980035
:020134009A002F
:020138009C0029
:02013C009E0023
:02014000A0001D
:02014400A20017
:02014800A40011
:02014C00A6000B
:02015000A80005
:02015400AA00FF
:02015800AC00F9
:02015C00AE00F3
:02016000B000ED
:02016400B200E7
:02016800B400E1
:02016C00B600DB
:02017000B800D5
:02017400BA00CF
:02017800BC00C9
:02017C00BE00C3
:02018000C000BD
:02018400C200B7
:02018800C400B1
:02018C00C600AB
:02019000C800A5
:02019400CA009F
:02019800CC0099
:02019C00CE0093
:0201A000D0008D
:0201A400D20087
:0201A800D40081
:0201AC00D6007B
:0201B000D80075
:0201B400DA006F
:0201B800DC0069
:0201BC00DE0063
:0201C000E0005D
:0201C400E20057
:0201C800E40051
:0201CC00E6004B
:0201D000E80045
:0201D400EA003F
:0201D800EC0039
:0201DC00EE0033
:0201E000F0002D
:0201E400F20027
:0201E800F40021
:0201EC00F6001B
:0201F000F80015
:0201F400FA000F
:0201F800FC0009
:0201FC00FE0003
:020200000001FB
:020204000201F5
:020208000401EF
:02020C000601E9
:020210000801E3
:020214000A01DD
:020218000C01D7
:02021C000E01D1
:020220001001CB
:020224001201C5
:020228001401BF
:02022C001601B9
:020230001801B3
:020234001A01AD
:020238001C01A7
:02023C001E01A1
:0202400020019B
:02024400220195
:0202480024018F
:02024C00260189
:02025000280183
:020254002A017D
:020258002C0177
:02025C002E0171
:0202600030016B
:02026400320165
:0202680034015F
:02026C00360159
:02027000380153
:020274003A014D
:020278003C0147
:02027C003E0141
:0202800040013B
:02028400420135
:0202880044012F
:02028C00460129
:02029000480123
:020294004A011D
:020298004C0117
:02029C004E0111
:0202A00050010B
:0202A400520105
:0202A8005401FF
:0202AC005601F9
:0202B0005801F3
:0202B4005A01ED
:0202B8005C01E7
:0202BC005E01E1
:0202C0006001DB
:0202C4006201D5
:0202C8006401CF
:0202CC006601C9
:0202D0006801C3
:0202D4006A01BD
:0202D8006C01B7
:0202DC006E01B1
:0202E0007001AB
:0202E4007201A5
:0202E80074019F
:0202EC00760199
:0202F000780193
:0202F4007A018D
:0202F8007C0187
:0202FC007E0181
:0203000080017A
:02030400820174
:0203080084016E
:02030C00860168
:02031000880162
:020314008A015C
:020318008C0156
:02031C008E0150
:0203200090014A
:02032400920144
:0203280094013E
:02032C00960138
:02033000980132
:020334009A012C
:020338009C0126
:02033C009E0120
:02034000A0011A
:02034400A20114
:02034800A4010E
:02034C00A60108
:02035000A80102
:02035400AA01FC
:02035800AC01F6
:02035C00AE01F0
:02036000B001EA
:02036400B201E4
:02036800B401DE
:02036C00B601D8
:02037000B801D2
:02037400BA01CC
:02037800BC01C6
:02037C00BE01C0
:02038000C001BA
:02038400C201B4
:02038800C401AE
:02038C00C601A8
:02039000C801A2
:02039400CA019C
:02039800CC0196
:02039C00CE0190
:0203A000D0018A
:0203A400D20184
:0203A800D4017E
:0203AC00D60178
:0203B000D80172
:0203B400DA016C
:0203B800DC0166
:0203BC00DE0160
:0203C000E0015A
:0203C400E20154
:0203C800E4014E
:0203CC00E60148
:0203D000E80142
:0203D400EA013C
:0203D800EC0136
:0203DC00EE0130
:0203E000F0012A
:0203E400F20124
:0203E800F4011E
:0203EC00F60118
:0203F000F80112
:0203F400FA010C
:0203F800FC0106
:0203FC00FE0100
:020400000002F8
:020404000202F2
:020408000402EC
:02040C000602E6
:020410000802E0
:020414000A02DA
:020418000C02D4
:02041C000E02CE
:020420001002C8
:020424001202C2
:020428001402BC
:02042C001602B6
:020430001802B0
:020434001A02AA
:020438001C02A4
:02043C001E029E
:02044000200298
:02044400220292
:0204480024028C
:02044C00260286
:02045000280280
:020454002A027A
:020458002C0274
:02045C002E026E
:02046000300268
:02046400320262
:0204680034025C
:02046C00360256
:02047000380250
:020474003A024A
:020478003C0244
:02047C003E023E
:02048000400238
:02048400420232
:0204880044022C
:02048C00460226
:02049000480220
:020494004A021A
:020498004C0214
:02049C004E020E
:0204A000500208
:0204A400520202
:0204A8005402FC
:0204AC005602F6
:0204B0005802F0
:0204B4005A02EA
:0204B8005C02E4
:0204BC005E02DE
:0204C0006002D8
:0204C4006202D2
:0204C8006402CC
:0204CC006602C6
:0204D0006802C0
:0204D4006A02BA
:0204D8006C02B4
:0204DC006E02AE
:0204E0007002A8
:0204E4007202A2
:0204E80074029C
:0204EC00760296
:0204F000780290
:0204F4007A028A
:0204F8007C0284
:0204FC007E027E
:02050000800277
:02050400820271
:0205080084026B
:02050C00860265
:0205100088025F
:020514008A0259
:020518008C0253
:02051C008E024D
:02052000900247
:02052400920241
:0205280094023B
:02052C00960235
:0205300098022F
:020534009A0229
:020538009C0223
:02053C009E021D
:02054000A00217
:02054400A20211
:02054800A4020B
:02054C00A60205
:02055000A802FF
:02055400AA02F9
:02055800AC02F3
:02055C00AE02ED
:02056000B002E7
:02056400B202E1
:02056800B402DB
:02056C00B602D5
:02057000B802CF
:02057400BA02C9
:02057800BC02C3
:02057C00BE02BD
:02058000C002B7
:02058400C202B1
:02058800C402AB
:02058C00C602A5
:02059000C8029F
:02059400CA0299
:02059800CC0293
:02059C00CE028D
:0205A000D00287
:0205A400D20281
:0205A800D4027B
:0205AC00D60275
:0205B000D8026F
:0205B400DA0269
:0205B800DC0263
:0205BC00DE025D
:0205C000E00257
:0205C400E20251
:0205C800E4024B
:0205CC00E60245
:0205D000E8023F
:0205D400EA0239
:0205D800EC0233
:0205DC00EE022D
:0205E000F00227
:0205E400F20221
:0205E800F4021B
:0205EC00F60215
:0205F000F8020F
:0205F400FA0209
:0205F800FC0203
:0205FC00FE02FD
:020600000003F5
:020604000203EF
:020608000403E9
:02060C000603E3
:020610000803DD
:020614000A03D7
:020618000C03D1
:02061C000E03CB
:020620001003C5
:020624001203BF
:020628001403B9
:02062C001603B3
:020630001803AD
:020634001A03A7
:020638001C03A1
:02063C001E039B
:02064000200395
:0206440022038F
:02064800240389
:02064C00260383
:0206500028037D
:020654002A0377
:020658002C0371
:02065C002E036B
:02066000300365
:0206640032035F
:02066800340359
:02066C00360353
:0206700038034D
:020674003A0347
:020678003C0341
:02067C003E033B
:02068000400335
:0206840042032F
:02068800440329
:02068C00460323
:0206900048031D
:020694004A0317
:020698004C0311
:02069C004E030B
:0206A000500305
:0206A4005203FF
:0206A8005403F9
:0206AC005603F3
:0206B0005803ED
:0206B4005A03E7
:0206B8005C03E1
:0206BC005E03DB
:0206C0006003D5
:0206C4006203CF
:0206C8006403C9
:0206CC006603C3
:0206D0006803BD
:0206D4006A03B7
:0206D8006C03B1
:0206DC006E03AB
:0206E0007003A5
:0206E40072039F
:0206E800740399
:0206EC00760393
:0206F00078038D
:0206F4007A0387
:0206F8007C0381
:0206FC007E037B
:02070000800374
:0207040082036E
:02070800840368
:02070C00860362
:0207100088035C
:020714008A0356
:020718008C0350
:02071C008E034A
:02072000900344
:0207240092033E
:02072800940338
:02072C00960332
:0207300098032C
:020734009A0326
:020738009C0320
:02073C009E031A
:02074000A00314
:02074400A2030E
:02074800A40308
:02074C00A60302
:02075000A803FC
:02075400AA03F6
:02075800AC03F0
:02075C00AE03EA
:02076000B003E4
:02076400B203DE
:02076800B403D8
:02076C00B603D2
:02077000B803CC
:02077400BA03C6
:02077800BC03C0
:02077C00BE03BA
:02078000C003B4
:02078400C203AE
:02078800C403A8
:02078C00C603A2
:02079000C8039C
:02079400CA0396
:02079800CC0390
:02079C00CE038A
:0207A000D00384
:0207A400D2037E
:0207A800D40378
:0207AC00D60372
:0207B000D8036C
:0207B400DA0366
:0207B800DC0360
:0207BC00DE035A
:0207C000E00354
:0207C400E2034E
:0207C800E40348
:0207CC00E60342
:0207D000E8033C
:0207D400EA0336
:0207D800EC0330
:0207DC00EE032A
:0207E000F00324
:0207E400F2031E
:0207E800F40318
:0207EC00F60312
:0207F000F8030C
:0207F400FA0306
:0207F800FC0300
:0207FC00FE03FA
:020800000004F2
:020804000204EC
:020808000404E6
:02080C000604E0
:020810000804DA
:020814000A04D4
:020818000C04CE
:02081C000E04C8
:020820001004C2
:020824001204BC
:020828001404B6
:02082C001604B0
:020830001804AA
:020834001A04A4
:020838001C049E
:02083C001E0498
:02084000200492
:0208440022048C
:02084800240486
:02084C00260480
:0208500028047A
:020854002A0474
:020858002C046E
:02085C002E0468
:02086000300462
:0208640032045C
:02086800340456
:02086C00360450
:0208700038044A
:020874003A0444
:020878003C043E
:02087C003E0438
:02088000400432
:0208840042042C
:02088800440426
:02088C00460420
:0208900048041A
:020894004A0414
:020898004C040E
:02089C004E0408
:0208A000500402
:0208A4005204FC
:0208A8005404F6
:0208AC005604F0
:0208B0005804EA
:0208B4005A04E4
:0208B8005C04DE
:0208BC005E04D8
:0208C0006004D2
:0208C4006204CC
:0208C8006404C6
:0208CC006604C0
:0208D0006804BA
:0208D4006A04B4
:0208D8006C04AE
:0208DC006E04A8
:0208E0007004A2
:0208E40072049C
:0208E800740496
:0208EC00760490
:0208F00078048A
:0208F4007A0484
:0208F8007C047E
:0208FC007E0478
:02090000800471
:0209040082046B
:02090800840465
:02090C0086045F
:02091000880459
:020914008A0453
:020918008C044D
:02091C008E0447
:02092000900441
:0209240092043B
:02092800940435
:02092C0096042F
:02093000980429
:020934009A0423
:020938009C041D
:02093C009E0417
:02094000A00411
:02094400A2040B
:02094800A40405
:02094C00A604FF
:02095000A804F9
:02095400AA04F3
:02095800AC04ED
:02095C00AE04E7
:02096000B004E1
:02096400B204DB
:02096800B404D5
:02096C00B604CF
:02097000B804C9
:02097400BA04C3
:02097800BC04BD
:02097C00BE04B7
:02098000C004B1
:02098400C204AB
:02098800C404A5
:02098C00C6049F
:02099000C80499
:02099400CA0493
:02099800CC048D
:02099C00CE0487
:0209A000D00481
:0209A400D2047B
:0209A800D40475
:0209AC00D6046F
:0209B000D80469
:0209B400DA0463
:0209B800DC045D
:0209BC00DE0457
:0209C000E00451
:0209C400E2044B
:0209C800E40445
:0209CC00E6043F
:0209D000E80439
:0209D400EA0433
:0209D800EC042D
:0209DC00EE0427
:0209E000F00421
:0209E400F2041B
:0209E800F40415
:0209EC00F6040F
:0209F000F80409
:0209F400FA0403
:0209F800FC04FD
:0209FC00FE04F7
:020A00000005EF
:020A04000205E9
:020A08000405E3
:020A0C000605DD
:020A10000805D7
:020A14000A05D1
:020A18000C05CB
:020A1C000E05C5
:020A20001005BF
:020A24001205B9
:020A28001405B3
:020A2C001605AD
:020A30001805A7
:020A34001A05A1
:020A38001C059B
:020A3C001E0595
:020A400020058F
:020A4400220589
:020A4800240583
:020A4C0026057D
:020A5000280577
:020A54002A0571
:020A58002C056B
:020A5C002E0565
:020A600030055F
:020A6400320559
:020A6800340553
:020A6C0036054D
:020A7000380547
:020A74003A0541
:020A78003C053B
:020A7C003E0535
:020A800040052F
:020A8400420529
:020A8800440523
:020A8C0046051D
:020A9000480517
:020A94004A0511
:020A98004C050B
:020A9C004E0505
:020AA0005005FF
:020AA4005205F9
:020AA8005405F3
:020AAC005605ED
:020AB0005805E7
:020AB4005A05E1
:020AB8005C05DB
:020ABC005E05D5
:020AC0006005CF
:020AC4006205C9
:020AC8006405C3
:020ACC006605BD
:020AD0006805B7
:020AD4006A05B1
:020AD8006C05AB
:020ADC006E05A5
:020AE00070059F
:020AE400720599
:020AE800740593
:020AEC0076058D
:020AF000780587
:020AF4007A0581
:020AF8007C057B
:020AFC007E0575
:020B000080056E
:020B0400820568
:020B0800840562
:020B0C0086055C
:020B1000880556
:020B14008A0550
:020B18008C054A
:020B1C008E0544
:020B200090053E
:020B2400920538
:020B2800940532
:020B2C0096052C
:020B3000980526
:020B34009A0520
:020B38009C051A
:020B3C009E0514
:020B4000A0050E
:020B4400A20508
:020B4800A40502
:020B4C00A605FC
:020B5000A805F6
:020B5400AA05F0
:020B5800AC05EA
:020B5C00AE05E4
:020B6000B005DE
:020B6400B205D8
:020B6800B405D2
:020B6C00B605CC
:020B7000B805C6
:020B7400BA05C0
:020B7800BC05BA
:020B7C00BE05B4
:020B8000C005AE
:020B8400C205A8
:020B8800C405A2
:020B8C00C6059C
:020B9000C80596
:020B9400CA0590
:020B9800CC058A
:020B9C00CE0584
:020BA000D0057E
:020BA400D20578
:020BA800D40572
:020BAC00D6056C
:020BB000D80566
:020BB400DA0560
:020BB800DC055A
:020BBC00DE0554
:020BC000E0054E
:020BC400E20548
:020BC800E40542
:020BCC00E6053C
:020BD000E80536
:020BD400EA0530
:020BD800EC052A
:020BDC00EE0524
:020BE000F0051E
:020BE400F20518
:020BE800F40512
:020BEC00F6050C
:020BF000F80506
:020BF400FA0500
:020BF800FC05FA
:020BFC00FE05F4
:020C00000006EC
:020C04000206E6
:020C08000406E0
:020C0C000606DA
:020C10000806D4
:020C14000A06CE
:020C18000C06C8
:020C1C000E06C2
:020C20001006BC
:020C24001206B6
:020C28001406B0
:020C2C001606AA
:020C30001806A4
:020C34001A069E
:020C38001C0698
:020C3C001E0692
:020C400020068C
:020C4400220686
:020C4800240680
:020C4C0026067A
:020C5000280674
:020C54002A066E
:020C58002C0668
:020C5C002E0662
:020C600030065C
:020C6400320656
:020C6800340650
:020C6C0036064A
:020C7000380644
:020C74003A063E
:020C78003C0638
:020C7C003E0632
:020C800040062C
:020C8400420626
:020C8800440620
:020C8C0046061A
:020C9000480614
:020C94004A060E
:020C98004C0608
:020C9C004E0602
:020CA0005006FC
:020CA4005206F6
:020CA8005406F0
:020CAC005606EA
:020CB0005806E4
:020CB4005A06DE
:020CB8005C06D8
:020CBC005E06D2
:020CC0006006CC
:020CC4006206C6
:020CC8006406C0
:020CCC006606BA
:020CD0006806B4
:020CD4006A06AE
:020CD8006C06A8
:020CDC006E06A2
:020CE00070069C
:020CE400720696
:020CE800740690
:020CEC0076068A
:020CF000780684
:020CF4007A067E
:020CF8007C0678
:020CFC007E0672
:020D000080066B
:020D0400820665
:020D080084065F
:020D0C00860659
:020D1000880653
:020D14008A064D
:020D18008C0647
:020D1C008E0641
:020D200090063B
:020D2400920635
:020D280094062F
:020D2C00960629
:020D3000980623
:020D34009A061D
:020D38009C0617
:020D3C009E0611
:020D4000A0060B
:020D4400A20605
:020D4800A406FF
:020D4C00A606F9
:020D5000A806F3
:020D5400AA06ED
:020D5800AC06E7
:020D5C00AE06E1
:020D6000B006DB
:020D6400B206D5
:020D6800B406CF
:020D6C00B606C9
:020D7000B806C3
:020D7400BA06BD
:020D7800BC06B7
:020D7C00BE06B1
:020D8000C006AB
:020D8400C206A5
:020D8800C4069F
:020D8C00C60699
:020D9000C80693
:020D9400CA068D
:020D9800CC0687
:020D9C00CE0681
:020DA000D0067B
:020DA400D20675
:020DA800D4066F
:020DAC00D60669
:020DB000D80663
:020DB400DA065D
:020DB800DC0657
:020DBC00DE0651
:020DC000E0064B
:020DC400E20645
:020DC800E4063F
:020DCC00E60639
:020DD000E80633
:020DD400EA062D
:020DD800EC0627
:020DDC00EE0621
:020DE000F0061B
:020DE400F20615
:020DE800F4060F
:020DEC00F60609
:020DF000F80603
:020DF400FA06FD
:020DF800FC06F7
:020DFC00FE06F1
:020E00000007E9
:020E04000207E3
:020E08000407DD
:020E0C000607D7
:020E10000807D1
:020E14000A07CB
:020E18000C07C5
:020E1C000E07BF
:020E20001007B9
:020E24001207B3
:020E28001407AD
:020E2C001607A7
:020E30001807A1
:020E34001A079B
:020E38001C0795
:020E3C001E078F
:020E4000200789
:020E4400220783
:020E480024077D
:020E4C00260777
:020E5000280771
:020E54002A076B
:020E58002C0765
:020E5C002E075F
:020E6000300759
:020E6400320753
:020E680034074D
:020E6C00360747
:020E7000380741
:020E74003A073B
:020E78003C0735
:020E7C003E072F
:020E8000400729
:020E8400420723
:020E880044071D
:020E8C00460717
:020E9000480711
:020E94004A070B
:020E98004C0705
:020E9C004E07FF
:020EA0005007F9
:020EA4005207F3
:020EA8005407ED
:020EAC005607E7
:020EB0005807E1
:020EB4005A07DB
:020EB8005C07D5
:020EBC005E07CF
:020EC0006007C9
:020EC4006207C3
:020EC8006407BD
:020ECC006607B7
:020ED0006807B1
:020ED4006A07AB
:020ED8006C07A5
:020EDC006E079F
:020EE000700799
:020EE400720793
:020EE80074078D
:020EEC00760787
:020EF000780781
:020EF4007A077B
:020EF8007C0775
:020EFC007E076F
:020F0000800768
:020F0400820762
:020F080084075C
:020F0C00860756
:020F1000880750
:020F14008A074A
:020F18008C0744
:020F1C008E073E
:020F2000900738
:020F2400920732
:020F280094072C
:020F2C00960726
:020F3000980720
:020F34009A071A
:020F38009C0714
:020F3C009E070E
:020F4000A00708
:020F4400A20702
:020F4800A407FC
:020F4C00A607F6
:020F5000A807F0
:020F5400AA07EA
:020F5800AC07E4
:020F5C00AE07DE
:020F6000B007D8
:020F6400B207D2
:020F6800B407CC
:020F6C00B607C6
:020F7000B807C0
:020F7400BA07BA
:020F7800BC07B4
:020F7C00BE07AE
:020F8000C007A8
:020F8400C207A2
:020F8800C4079C
:020F8C00C60796
:020F9000C80790
:020F9400CA078A
:020F9800CC0784
:020F9C00CE077E
:020FA000D00778
:020FA400D20772
:020FA800D4076C
:020FAC00D60766
:020FB000D80760
:020FB400DA075A
:020FB800DC0754
:020FBC00DE074E
:020FC000E00748
:020FC400E20742
:020FC800E4073C
:020FCC00E60736
:020FD000E80730
:020FD400EA072A
:020FD800EC0724
:020FDC00EE071E
:020FE000F00718
:020FE400F20712
:020FE800F4070C
:020FEC00F60706
:020FF000F80700
:020FF400FA07FA
:020FF800FC07F4
:020FFC00FE07EE
:021000000008E6
:021004000208E0
:021008000408DA
:02100C000608D4
:021010000808CE
:021014000A08C8
:021018000C08C2
:02101C000E08BC
:021020001008B6
:021024001208B0
:021028001408AA
:02102C001608A4
:0210300018089E
:021034001A0898
:021038001C0892
:02103C001E088C
:02104000200886
:02104400220880
:0210480024087A
:02104C00260874
:0210500028086E
:021054002A0868
:021058002C0862
:02105C002E085C
:02106000300856
:02106400320850
:0210680034084A
:02106C00360844
:0210700038083E
:021074003A0838
:021078003C0832
:02107C003E082C
:02108000400826
:02108400420820
:0210880044081A
:02108C00460814
:0210900048080E
:021094004A0808
:021098004C0802
:02109C004E08FC
:0210A0005008F6
:0210A4005208F0
:0210A8005408EA
:0210AC005608E4
:0210B0005808DE
:0210B4005A08D8
:0210B8005C08D2
:0210BC005E08CC
:0210C0006008C6
:0210C4006208C0
:0210C8006408BA
:0210CC006608B4
:0210D0006808AE
:0210D4006A08A8
:0210D8006C08A2
:0210DC006E089C
:0210E000700896
:0210E400720890
:0210E80074088A
:0210EC00760884
:0210F00078087E
:0210F4007A0878
:0210F8007C0872
:0210FC007E086C
:02110000800865
:0211040082085F
:02110800840859
:02110C00860853
:0211100088084D
:021114008A0847
:021118008C0841
:02111C008E083B
:02112000900835
:0211240092082F
:02112800940829
:02112C00960823
:0211300098081D
:021134009A0817
:021138009C0811
:02113C009E080B
:02114000A00805
:02114400A208FF
:02114800A408F9
:02114C00A608F3
:02115000A808ED
:02115400AA08E7
:02115800AC08E1
:02115C00AE08DB
:02116000B008D5
:02116400B208CF
:02116800B408C9
:02116C00B608C3
:02117000B808BD
:02117400BA08B7
:02117800BC08B1
:02117C00BE08AB
:02118000C008A5
:02118400C2089F
:02118800C40899
:02118C00C60893
:02119000C8088D
:02119400CA0887
:02119800CC0881
:02119C00CE087B
:0211A000D00875
:0211A400D2086F
:0211A800D40869
:0211AC00D60863
:0211B000D8085D
:0211B400DA0857
:0211B800DC0851
:0211BC00DE084B
:0211C000E00845
:0211C400E2083F
:0211C800E40839
:0211CC00E60833
:0211D000E8082D
:0211D400EA0827
:0211D800EC0821
:0211DC00EE081B
:0211E000F00815
:0211E400F2080F
:0211E800F40809
:0211EC00F60803
:0211F000F808FD
:0211F400FA08F7
:0211F800FC08F1
:0211FC00FE08EB
:021200000009E3
:021204000209DD
:021208000409D7
:02120C000609D1
:021210000809CB
:021214000A09C5
:021218000C09BF
:02121C000E09B9
:021220001009B3
:021224001209AD
:021228001409A7
:02122C001609A1
:0212300018099B
:021234001A0995
:021238001C098F
:02123C001E0989
:02124000200983
:0212440022097D
:02124800240977
:02124C00260971
:0212500028096B
:021254002A0965
:021258002C095F
:02125C002E0959
:02126000300953
:0212640032094D
:02126800340947
:02126C00360941
:0212700038093B
:021274003A0935
:021278003C092F
:02127C003E0929
:02128000400923
:0212840042091D
:02128800440917
:02128C00460911
:0212900048090B
:021294004A0905
:021298004C09FF
:02129C004E09F9
:0212A0005009F3
:0212A4005209ED
:0212A8005409E7
:0212AC005609E1
:0212B0005809DB
:0212B4005A09D5
:0212B8005C09CF
:0212BC005E09C9
:0212C0006009C3
:0212C4006209BD
:0212C8006409B7
:0212CC006609B1
:0212D0006809AB
:0212D4006A09A5
:0212D8006C099F
:0212DC006E0999
:0212E000700993
:0212E40072098D
:0212E800740987
:0212EC00760981
:0212F00078097B
:0212F4007A0975
:0212F8007C096F
:0212FC007E0969
:02130000800962
:0213040082095C
:02130800840956
:02130C00860950
:0213100088094A
:021314008A0944
:021318008C093E
:02131C008E0938
:02132000900932
:0213240092092C
:02132800940926
:02132C00960920
:0213300098091A
:021334009A0914
:021338009C090E
:02133C009E0908
:02134000A00902
:02134400A209FC
:02134800A409F6
:02134C00A609F0
:02135000A809EA
:02135400AA09E4
:02135800AC09DE
:02135C00AE09D8
:02136000B009D2
:02136400B209CC
:02136800B409C6
:02136C00B609C0
:02137000B809BA
:02137400BA09B4
:02137800BC09AE
:02137C00BE09A8
:02138000C009A2
:02138400C2099C
:02138800C40996
:02138C00C60990
:02139000C8098A
:02139400CA0984
:02139800CC097E
:02139C00CE0978
:0213A000D00972
:0213A400D2096C
:0213A800D40966
:0213AC00D60960
:0213B000D8095A
:0213B400DA0954
:0213B800DC094E
:0213BC00DE0948
:0213C000E00942
:0213C400E2093C
:0213C800E40936
:0213CC00E60930
:0213D000E8092A
:0213D400EA0924
:0213D800EC091E
:0213DC00EE0918
:0213E000F00912
:0213E400F2090C
:0213E800F40906
:0213EC00F60900
:0213F000F809FA
:0213F400FA09F4
:0213F800FC09EE
:0213FC00FE09E8
:02140000000AE0
:02140400020ADA
:02140800040AD4
:02140C00060ACE
:02141000080AC8
:021414000A0AC2
:021418000C0ABC
:02141C000E0AB6
:02142000100AB0
:02142400120AAA
:02142800140AA4
:02142C00160A9E
:02143000180A98
:021434001A0A92
:021438001C0A8C
:02143C001E0A86
:02144000200A80
:02144400220A7A
:02144800240A74
:02144C00260A6E
:02145000280A68
:021454002A0A62
:021458002C0A5C
:02145C002E0A56
:02146000300A50
:02146400320A4A
:02146800340A44
:02146C00360A3E
:02147000380A38
:021474003A0A32
:021478003C0A2C
:02147C003E0A26
:02148000400A20
:02148400420A1A
:02148800440A14
:02148C00460A0E
:02149000480A08
:021494004A0A02
:021498004C0AFC
:02149C004E0AF6
:0214A000500AF0
:0214A400520AEA
:0214A800540AE4
:0214AC00560ADE
:0214B000580AD8
:0214B4005A0AD2
:0214B8005C0ACC
:0214BC005E0AC6
:0214C000600AC0
:0214C400620ABA
:0214C800640AB4
:0214CC00660AAE
:0214D000680AA8
:0214D4006A0AA2
:0214D8006C0A9C
:0214DC006E0A96
:0214E000700A90
:0214E400720A8A
:0214E800740A84
:0214EC00760A7E
:0214F000780A78
:0214F4007A0A72
:0214F8007C0A6C
:0214FC007E0A66
:02150000800A5F
:02150400820A59
:02150800840A53
:02150C00860A4D
:02151000880A47
:021514008A0A41
:021518008C0A3B
:02151C008E0A35
:02152000900A2F
:02152400920A29
:02152800940A23
:02152C00960A1D
:02153000980A17
:021534009A0A11
:021538009C0A0B
:02153C009E0A05
:02154000A00AFF
:02154400A20AF9
:02154800A40AF3
:02154C00A60AED
:02155000A80AE7
:02155400AA0AE1
:02155800AC0ADB
:02155C00AE0AD5
:02156000B00ACF
:02156400B20AC9
:02156800B40AC3
:02156C00B60ABD
:02157000B80AB7
:02157400BA0AB1
:02157800BC0AAB
:02157C00BE0AA5
:02158000C00A9F
:02158400C20A99
:02158800C40A93
:02158C00C60A8D
:02159000C80A87
:02159400CA0A81
:02159800CC0A7B
:02159C00CE0A75
:0215A000D00A6F
:0215A400D20A69
:0215A800D40A63
:0215AC00D60A5D
:0215B000D80A57
:0215B400DA0A51
:0215B800DC0A4B
:0215BC00DE0A45
:0215C000E00A3F
:0215C400E20A39
:0215C800E40A33
:0215CC00E60A2D
:0215D000E80A27
:0215D400EA0A21
:0215D800EC0A1B
:0215DC00EE0A15
:0215E000F00A0F
:0215E400F20A09
:0215E800F40A03
:0215EC00F60AFD
:0215F000F80AF7
:0215F400FA0AF1
:0215F800FC0AEB
:0215FC00FE0AE5
:02160000000BDD
:02160400020BD7
:02160800040BD1
:02160C00060BCB
:02161000080BC5
:021614000A0BBF
:021618000C0BB9
:02161C000E0BB3
:02162000100BAD
:02162400120BA7
:02162800140BA1
:02162C00160B9B
:02163000180B95
:021634001A0B8F
:021638001C0B89
:02163C001E0B83
:02164000200B7D
:02164400220B77
:02164800240B71
:02164C00260B6B
:02165000280B65
:021654002A0B5F
:021658002C0B59
:02165C002E0B53
:02166000300B4D
:02166400320B47
:02166800340B41
:02166C00360B3B
:02167000380B35
:021674003A0B2F
:021678003C0B29
:02167C003E0B23
:02168000400B1D
:02168400420B17
:02168800440B11
:02168C00460B0B
:02169000480B05
:021694004A0BFF
:021698004C0BF9
:02169C004E0BF3
:0216A000500BED
:0216A400520BE7
:0216A800540BE1
:0216AC00560BDB
:0216B000580BD5
:0216B4005A0BCF
:0216B8005C0BC9
:0216BC005E0BC3
:0216C000600BBD
:0216C400620BB7
:0216C800640BB1
:0216CC00660BAB
:0216D000680BA5
:0216D4006A0B9F
:0216D8006C0B99
:0216DC006E0B93
:0216E000700B8D
:0216E400720B87
:0216E800740B81
:0216EC00760B7B
:0216F000780B75
:0216F4007A0B6F
:0216F8007C0B69
:0216FC007E0B63
:02170000800B5C
:02170400820B56
:02170800840B50
:02170C00860B4A
:02171000880B44
:021714008A0B3E
:021718008C0B38
:02171C008E0B32
:02172000900B2C
:02172400920B26
:02172800940B20
:02172C00960B1A
:02173000980B14
:021734009A0B0E
:021738009C0B08
:02173C009E0B02
:02174000A00BFC
:02174400A20BF6
:02174800A40BF0
:02174C00A60BEA
:02175000A80BE4
:02175400AA0BDE
:02175800AC0BD8
:02175C00AE0BD2
:02176000B00BCC
:02176400B20BC6
:02176800B40BC0
:02176C00B60BBA
:02177000B80BB4
:02177400BA0BAE
:02177800BC0BA8
:02177C00BE0BA2
:02178000C00B9C
:02178400C20B96
:02178800C40B90
:02178C00C60B8A
:02179000C80B84
:02179400CA0B7E
:02179800CC0B78
:02179C00CE0B72
:0217A000D00B6C
:0217A400D20B66
:0217A800D40B60
:0217AC00D60B5A
:0217B000D80B54
:0217B400DA0B4E
:0217B800DC0B48
:0217BC00DE0B42
:0217C000E00B3C
:0217C400E20B36
:0217C800E40B30
:0217CC00E60B2A
:0217D000E80B24
:0217D400EA0B1E
:0217D800EC0B18
:0217DC00EE0B12
:0217E000F00B0C
:0217E400F20B06
:0217E800F40B00
:0217EC00F60BFA
:0217F000F80BF4
:0217F400FA0BEE
:0217F800FC0BE8
:0217FC00FE0BE2
:02180000000CDA
:02180400020CD4
:02180800040CCE
:02180C00060CC8
:02181000080CC2
:021814000A0CBC
:021818000C0CB6
:02181C000E0CB0
:02182000100CAA
:02182400120CA4
:02182800140C9E
:02182C00160C98
:02183000180C92
:021834001A0C8C
:021838001C0C86
:02183C001E0C80
:02184000200C7A
:02184400220C74
:02184800240C6E
:02184C00260C68
:02185000280C62
:021854002A0C5C
:021858002C0C56
:02185C002E0C50
:02186000300C4A
:02186400320C44
:02186800340C3E
:02186C00360C38
:02187000380C32
:021874003A0C2C
:021878003C0C26
:02187C003E0C20
:02188000400C1A
:02188400420C14
:02188800440C0E
:02188C00460C08
:02189000480C02
:021894004A0CFC
:021898004C0CF6
:02189C004E0CF0
:0218A000500CEA
:0218A400520CE4
:0218A800540CDE
:0218AC00560CD8
:0218B000580CD2
:0218B4005A0CCC
:0218B8005C0CC6
:0218BC005E0CC0
:0218C000600CBA
:0218C400620CB4
:0218C800640CAE
:0218CC00660CA8
:0218D000680CA2
:0218D4006A0C9C
:0218D8006C0C96
:0218DC006E0C90
:0218E000700C8A
:0218E400720C84
:0218E800740C7E
:0218EC00760C78
:0218F000780C72
:0218F4007A0C6C
:0218F8007C0C66
:0218FC007E0C60
:02190000800C59
:02190400820C53
:02190800840C4D
:02190C00860C47
:02191000880C41
:021914008A0C3B
:021918008C0C35
:02191C008E0C2F
:02192000900C29
:02192400920C23
:02192800940C1D
:02192C00960C17
:02193000980C11
:021934009A0C0B
:021938009C0C05
:02193C009E0CFF
:02194000A00CF9
:02194400A20CF3
:02194800A40CED
:02194C00A60CE7
:02195000A80CE1
:02195400AA0CDB
:02195800AC0CD5
:02195C00AE0CCF
:02196000B00CC9
:02196400B20CC3
:02196800B40CBD
:02196C00B60CB7
:02197000B80CB1
:02197400BA0CAB
:02197800BC0CA5
:02197C00BE0C9F
:02198000C00C99
:02198400C20C93
:02198800C40C8D
:02198C00C60C87
:02199000C80C81
:02199400CA0C7B
:02199800CC0C75
:02199C00CE0C6F
:0219A000D00C69
:0219A400D20C63
:0219A800D40C5D
:0219AC00D60C57
:0219B000D80C51
:0219B400DA0C4B
:0219B800DC0C45
:0219BC00DE0C3F
:0219C000E00C39
:0219C400E20C33
:0219C800E40C2D
:0219CC00E60C27
:0219D000E80C21
:0219D400EA0C1B
:0219D800EC0C15
:0219DC00EE0C0F
:0219E000F00C09
:0219E400F20C03
:0219E800F40CFD
:0219EC00F60CF7
:0219F000F80CF1
:0219F400FA0CEB
:0219F800FC0CE5
:0219FC00FE0CDF
:021A0000000DD7
:021A0400020DD1
:021A0800040DCB
:021A0C00060DC5
:021A1000080DBF
:021A14000A0DB9
:021A18000C0DB3
:021A1C000E0DAD
:021A2000100DA7
:021A2400120DA1
:021A2800140D9B
:021A2C00160D95
:021A3000180D8F
:021A34001A0D89
:021A38001C0D83
:021A3C001E0D7D
:021A4000200D77
:021A4400220D71
:021A4800240D6B
:021A4C00260D65
:021A5000280D5F
:021A54002A0D59
:021A58002C0D53
:021A5C002E0D4D
:021A6000300D47
:021A6400320D41
:021A6800340D3B
:021A6C00360D35
:021A7000380D2F
:021A74003A0D29
:021A78003C0D23
:021A7C003E0D1D
:021A8000400D17
:021A8400420D11
:021A8800440D0B
:021A8C00460D05
:021A9000480DFF
:021A94004A0DF9
:021A98004C0DF3
:021A9C004E0DED
:021AA000500DE7
:021AA400520DE1
:021AA800540DDB
:021AAC00560DD5
:021AB000580DCF
:021AB4005A0DC9
:021AB8005C0DC3
:021ABC005E0DBD
:021AC000600DB7
:021AC400620DB1
:021AC800640DAB
:021ACC00660DA5
:021AD000680D9F
:021AD4006A0D99
:021AD8006C0D93
:021ADC006E0D8D
:021AE000700D87
:021AE400720D81
:021AE800740D7B
:021AEC00760D75
:021AF000780D6F
:021AF4007A0D69
:021AF8007C0D63
:021AFC007E0D5D
:021B0000800D56
:021B0400820D50
:021B0800840D4A
:021B0C00860D44
:021B1000880D3E
:021B14008A0D38
:021B18008C0D32
:021B1C008E0D2C
:021B2000900D26
:021B2400920D20
:021B2800940D1A
:021B2C00960D14
:021B3000980D0E
:021B34009A0D08
:021B38009C0D02
:021B3C009E0DFC
:021B4000A00DF6
:021B4400A20DF0
:021B4800A40DEA
:021B4C00A60DE4
:021B5000A80DDE
:021B5400AA0DD8
:021B5800AC0DD2
:021B5C00AE0DCC
:021B6000B00DC6
:021B6400B20DC0
:021B6800B40DBA
:021B6C00B60DB4
:021B7000B80DAE
:021B7400BA0DA8
:021B7800BC0DA2
:021B7C00BE0D9C
:021B8000C00D96
:021B8400C20D90
:021B8800C40D8A
:021B8C00C60D84
:021B9000C80D7E
:021B9400CA0D78
:021B9800CC0D72
:021B9C00CE0D6C
:021BA000D00D66
:021BA400D20D60
:021BA800D40D5A
:021BAC00D60D54
:021BB000D80D4E
:021BB400DA0D48
:021BB800DC0D42
:021BBC00DE0D3C
:021BC000E00D36
:021BC400E20D30
:021BC800E40D2A
:021BCC00E60D24
:021BD000E80D1E
:021BD400EA0D18
:021BD800EC0D12
:021BDC00EE0D0C
:021BE000F00D06
:021BE400F20D00
:021BE800F40DFA
:021BEC00F60DF4
:021BF000F80DEE
:021BF400FA0DE8
:021BF800FC0DE2
:021BFC00FE0DDC
:021C0000000ED4
:021C0400020ECE
:021C0800040EC8
:021C0C00060EC2
:021C1000080EBC
:021C14000A0EB6
:021C18000C0EB0
:021C1C000E0EAA
:021C2000100EA4
:021C2400120E9E
:021C2800140E98
:021C2C00160E92
:021C3000180E8C
:021C34001A0E86
:021C38001C0E80
:021C3C001E0E7A
:021C4000200E74
:021C4400220E6E
:021C4800240E68
:021C4C00260E62
:021C5000280E5C
:021C54002A0E56
:021C58002C0E50
:021C5C002E0E4A
:021C6000300E44
:021C6400320E3E
:021C6800340E38
:021C6C00360E32
:021C7000380E2C
:021C74003A0E26
:021C78003C0E20
:021C7C003E0E1A
:021C8000400E14
:021C8400420E0E
:021C8800440E08
:021C8C00460E02
:021C9000480EFC
:021C94004A0EF6
:021C98004C0EF0
:021C9C004E0EEA
:021CA000500EE4
:021CA400520EDE
:021CA800540ED8
:021CAC00560ED2
:021CB000580ECC
:021CB4005A0EC6
:021CB8005C0EC0
:021CBC005E0EBA
:021CC000600EB4
:021CC400620EAE
:021CC800640EA8
:021CCC00660EA2
:021CD000680E9C
:021CD4006A0E96
:021CD8006C0E90
:021CDC006E0E8A
:021CE000700E84
:021CE400720E7E
:021CE800740E78
:021CEC00760E72
:021CF000780E6C
:021CF4007A0E66
:021CF8007C0E60
:021CFC007E0E5A
:021D0000800E53
:021D0400820E4D
:021D0800840E47
:021D0C00860E41
:021D1000880E3B
:021D14008A0E35
:021D18008C0E2F
:021D1C008E0E29
:021D2000900E23
:021D2400920E1D
:021D2800940E17
:021D2C00960E11
:021D3000980E0B
:021D34009A0E05
:021D38009C0EFF
:021D3C009E0EF9
:021D4000A00EF3
:021D4400A20EED
:021D4800A40EE7
:021D4C00A60EE1
:021D5000A80EDB
:021D5400AA0ED5
:021D5800AC0ECF
:021D5C00AE0EC9
:021D6000B00EC3
:021D6400B20EBD
:021D6800B40EB7
:021D6C00B60EB1
:021D7000B80EAB
:021D7400BA0EA5
:021D7800BC0E9F
:021D7C00BE0E99
:021D8000C00E93
:021D8400C20E8D
:021D8800C40E87
:021D8C00C60E81
:021D9000C80E7B
:021D9400CA0E75
:021D9800CC0E6F
:021D9C00CE0E69
:021DA000D00E63
:021DA400D20E5D
:021DA800D40E57
:021DAC00D60E51
:021DB000D80E4B
:021DB400DA0E45
:021DB800DC0E3F
:021DBC00DE0E39
:021DC000E00E33
:021DC400E20E2D
:021DC800E40E27
:021DCC00E60E21
:021DD000E80E1B
:021DD400EA0E15
:021DD800EC0E0F
:021DDC00EE0E09
:021DE000F00E03
:021DE400F20EFD
:021DE800F40EF7
:021DEC00F60EF1
:021DF000F80EEB
:021DF400FA0EE5
:021DF800FC0EDF
:021DFC00FE0ED9
:021E0000000FD1
:021E0400020FCB
:021E0800040FC5
:021E0C00060FBF
:021E1000080FB9
:021E14000A0FB3
:021E18000C0FAD
:021E1C000E0FA7
:021E2000100FA1
:021E2400120F9B
:021E2800140F95
:021E2C00160F8F
:021E3000180F89
:021E34001A0F83
:021E38001C0F7D
:021E3C001E0F77
:021E4000200F71
:021E4400220F6B
:021E4800240F65
:021E4C00260F5F
:021E5000280F59
:021E54002A0F53
:021E58002C0F4D
:021E5C002E0F47
:021E6000300F41
:021E6400320F3B
:021E6800340F35
:021E6C00360F2F
:021E7000380F29
:021E74003A0F23
:021E78003C0F1D
:021E7C003E0F17
:021E8000400F11
:021E8400420F0B
:021E8800440F05
:021E8C00460FFF
:021E9000480FF9
:021E94004A0FF3
:021E98004C0FED
:021E9C004E0FE7
:021EA000500FE1
:021EA400520FDB
:021EA800540FD5
:021EAC00560FCF
:021EB000580FC9
:021EB4005A0FC3
:021EB8005C0FBD
:021EBC005E0FB7
:021EC000600FB1
:021EC400620FAB
:021EC800640FA5
:021ECC00660F9F
:021ED000680F99
:021ED4006A0F93
:021ED8006C0F8D
:021EDC006E0F87
:021EE000700F81
:021EE400720F7B
:021EE800740F75
:021EEC00760F6F
:021EF000780F69
:021EF4007A0F63
:021EF8007C0F5D
:021EFC007E0F57
:021F0000800F50
:021F0400820F4A
:021F0800840F44
:021F0C00860F3E
:021F1000880F38
:021F14008A0F32
:021F18008C0F2C
:021F1C008E0F26
:021F2000900F20
:021F2400920F1A
:021F2800940F14
:021F2C00960F0E
:021F3000980F08
:021F34009A0F02
:021F38009C0FFC
:021F3C009E0FF6
:021F4000A00FF0
:021F4400A20FEA
:021F4800A40FE4
:021F4C00A60FDE
:021F5000A80FD8
:021F5400AA0FD2
:021F5800AC0FCC
:021F5C00AE0FC6
:021F6000B00FC0
:021F6400B20FBA
:021F6800B40FB4
:021F6C00B60FAE
:021F7000B80FA8
:021F7400BA0FA2
:021F7800BC0F9C
:021F7C00BE0F96
:021F8000C00F90
:021F8400C20F8A
:021F8800C40F84
:021F8C00C60F7E
:021F9000C80F78
:021F9400CA0F72
:021F9800CC0F6C
:021F9C00CE0F66
:021FA000D00F60
:021FA400D20F5A
:021FA800D40F54
:021FAC00D60F4E
:021FB000D80F48
:021FB400DA0F42
:021FB800DC0F3C
:021FBC00DE0F36
:021FC000E00F30
:021FC400E20F2A
:021FC800E40F24
:021FCC00E60F1E
:021FD000E80F18
:021FD400EA0F12
:021FD800EC0F0C
:021FDC00EE0F06
:021FE000F00F00
:021FE400F20FFA
:021FE800F40FF4
:021FEC00F60FEE
:021FF000F80FE8
:021FF400FA0FE2
:021FF800FC0FDC
:021FFC00FE0FD6
:00000001FF
