:020000040000FA
:10000000E001E001E001C001C001FF01000E410E6E
:10001000410EFF0E600160016001400140017F015F
:1000200000042004400460048004A004C004E00430
:100030001F0400052005400560058005A005C005DA
:10004000E0051F0500062006400660068006A006A3
:10005000C006E0061F06000720074007600780076C
:10006000A007C007E0071F070009FF0960007F0025
:1000700040000400600260026002400240027F0211
:10008000E000E000E000C000C000FF00E002E0028D
:10009000E002C002C002FF02000AFF0BA002A002A1
:1000A000A00280028002BF02E003E003E003C0037D
:1000B000C003FF03000D410D410DFF0D2001200184
:1000C0002001000100013F01200220022002000265
:1000D00000023F02000C410C410CFF0C20003F00CD
:1000E000000002000008FF08600360036003400393
:1000F00040037F03200320032003000300033F038A
:100100000300A000A000A00080008000BF00A003AA
:10011000A003A00380038003BF03050006000700BF
:10012000000F410F410FFF0FA001A001A0018001AE
:040130008001BF018A
:00000001FF
