:020000040000FA
:10000000003E413E413EFF3E8007800780070007DB
:100010000007FF07003941394139FF398005800564
:10002000800500050005FF050010801000118011FB
:1000300000128012001380137F100014801400152A
:10004000801500168016001780177F14001880187E
:1000500000198019001A801A001B801B7F18001CD1
:10006000801C001D801D001E801E001F801F7F1C25
:100070000020FF278001FF0103016400800980093F
:10008000800900090009FF09800380038003000341
:100090000003FF03800B800B800B000B000BFF0B9A
:1000A0000028FF2F800A800A800A000A000AFF0A3F
:1000B000800F800F800F000F000FFF0F00384138B6
:1000C0004138FF3880048004800400040004FF04E9
:1000D00080088008800800080008FF0800304130D0
:1000E0004130FF308000FF00000062000900003452
:1000F00041344134FF340800800D800D800D000D27
:10010000000DFF0D800C800C800C000C000CFF0C0F
:100110006300003C413C413CFF3C80028002800285
:1001200000020002FF02800E800E800E000E000E04
:10013000FF0E650066006700003A413A413AFF3A17
:0C01400080068006800600060006FF0610
:00000001FF
