:020000040000FA
:100000000304030403050305230423042305230534
:10001000430443044305430503070307030603069C
:100020002307230723062306430743074306430604
:1000300025022502060206026702A7026702A7023E
:1000400003068802030688020306E9000306E900A6
:1000500023068202230682022306E3002306E3002E
:10006000000B000B0306100B0306100B0307200BFD
:100070000307200B2306300B2306300B2307400B0E
:100080002307400B4306500B4306500B4307600BFE
:100090004307600BA304C3040109A304C3040109BB
:1000A000A305C3043409A305C3043409A304C30589
:1000B0005609A304C3055609A305C3057809A3057A
:1000C000C3057809A304C304010AA304C304010AF5
:1000D000A304C304230BA304C304230BA305C30479
:1000E000340AA305C304340AA305C304450BA305BE
:1000F000C304450BA304C305560AA304C305560A4B
:10010000A304C305670BA304C305670BA305C305BD
:0A011000780AA305C305780A000869
:00000001FF
