:100000000310031003140314831083108314831448
:100010000311031103150315031C031C0318031814
:10002000831C831C83188318031D031D03190319E4
:1000300085088508060806088709870A8709870A48
:100040000318080A0318080A031889030318890308
:100050008318020A8318020A831883038318830310
:10006000002900290318102903181029031C20292E
:10007000031C20298318302983183029831C402928
:10008000831C40290319502903195029031D602995
:10009000031D60298A110A1200208A110A12002009
:1000A0008A150A1200208A150A1200208A110A16DF
:1000B00000208A110A1600208A150A1600208A15C7
:0400C0000A160020FC
:00000001FF
