:020000040000FA
:100000004001A0004101A0004201A0004301A00066
:100010004401A0004501A0004601A0004701A00046
:100020004801A0004901A0004A01A0004B01A00026
:100030004C01A0005801A0005901A0005A01A000E5
:100040005B01A0005C01A0005D01A0005E01A000BA
:100050005F01A0006001A0006101A0006201A0009A
:100060006301A0006401A0006501A0006601A0007A
:100070006701A0006801A0006901A0006A01A0005A
:100080006B01A0006C01A0006D01A0006E01A0003A
:100090006F01A0007001A0007101A0007201A0001A
:0800A0007C01A0007E01A0001C
:00000001FF
