:020000040000FA
:1000000062016403660500073201340336053807D0
:100010000000FF0F6201640366050007320134032C
:10002000360538072104020003000400FF0F0F0407
:100030000F050F030A044D007900200050007200E4
:100040006F006700720061006D002C0020007600D8
:1000500031002E00300000006201640366050007D5
:1000600032013403360538070000FF0F410820082D
:100070004D0865087308730861086708650800087B
:10008000FF0F0001FF0FFF0F0002FF0FFF0FFF0F19
:0C0090000003FF0FFF0FFF0FFF0F000425
:080400000100020003000400EA
:00000001FF
