:020000040000FA
:100000000130023003300F30043005300030003052
:100010000130023002300330033004300430053048
:1000200000300030053004300F3001300030013036
:10003000023003300F300430053000300030013022
:100040000230023003300330043004300530003019
:100050000030053004300F30013000300130013005
:1000600002300230033003300430043005300030F9
:1000700000300130013002300230033003300430F0
:06008000043005300028E9
:00000001FF
