:020000040000FA
:100040000000003E413E413EFF3E253E003E213E37
:10005000003EB93E013E2B3E2D3E2C3EFF3E013E72
:10006000800780070007FF07FF077F07A107A10799
:100070002107A907A9072907FF078107A207A807E2
:10008000003941394139FF394439003921390039C2
:10009000B93901394A394C394B39FF3901398005B1
:1000A00080050005FF05FF057F05A105A1052105C8
:1000B000A905A9052905FF058105A205A8050010C8
:1000C00080137F10FF132110A1132910A91300140E
:1000D00080177F14FF172114A1172914A9170018DE
:1000E000801B7F18FF1B2118A11B2918A91B001CAE
:1000F000801F7F1CFF1F211CA11F291CA91F00207E
:10010000FF272120B9218320852084208001FF0141
:10011000A101A901FF018101A201A801030164005D
:10012000800980090009FF09FF097F09A109A109C8
:100130002109A909A9092909FF098109A209A80911
:10014000800380030003FF03FF037F03A103A103D8
:100150002103A903A9032903FF038103A203A80321
:10016000800B800B000BFF0BFF0B7F0BA10BA10B78
:10017000210BA90BA90B290BFF0B810BA20BA80BC1
:100180000028FF2F2128B929C428C628C528800A9D
:10019000800A000AFF0AFF0A7F0AA10AA10A210AAF
:1001A000A90AA90A290AFF0A810AA20AA80A800F35
:1001B000800F000FFF0FFF0F7F0FA10FA10F210F67
:1001C000A90FA90F290FFF0F810FA20FA80F003849
:1001D00041384138FF38EB38003821380038B93819
:1001E0000138F138F338F238FF38013880048004E0
:1001F0000004FF04FF047F04A104A1042104A90456
:10020000A9042904FF048104A204A804800880082A
:100210000008FF08FF087F08A108A1082108A90815
:10022000A9082908FF088108A208A8080030413061
:100230004130FF301A30013021300030B930013008
:10024000203022302130FF3001308000FF00A1003B
:10025000A900FF008100A200A800000062000900C0
:10026000003441344134FF34343401342134003417
:10027000B93401343A343C343B34FF34013408009F
:10028000800D800D000DFF0DFF0D7F0DA10DA10D47
:10029000210DA90DA90D290DFF0D810DA20DA80D90
:1002A000800C800C000CFF0CFF0C7F0CA10CA10C2F
:1002B000210CA90CA90C290CFF0C810CA20CA80C78
:1002C0006300003C413C413CFF3C653C013C213C1F
:1002D000003CB93C013C6B3C6D3C6C3CFF3C013C40
:1002E000800280020002FF02FF027F02A102A1023F
:1002F0002102A902A9022902FF028102A202A80288
:10030000800E800E000EFF0EFF0E7F0EA10EA10EBE
:10031000210EA90EA90E290EFF0E810EA20EA80E07
:10032000003A413A413AFF3A943A013A213A003AC6
:10033000B93A013A9A3A9C3A9B3AFF3A013A800616
:1003400080060006FF06FF067F06A106A10621061D
:10035000A906A9062906FF068106A206A806831299
:100360000313831203138A110A128A110A1221003D
:02037000B901D1
:00000001FF
