:020000040000FA
:10000000230123012301230123015604560456042E
:100010005604560456045604560450045004500422
:10002000500450045004130014001500160017006B
:1000300083048304830483048304000A000A000AFF
:10004000000A000A000A000A000A000A000A000A60
:10005000000A000A000A000A000A000A000A000A50
:10006000000A000A000A000A000A000A000A000A40
:10007000000A000A000A000A000A000A000A000A30
:10008000000A000A000A000A000A000A000A000A20
:10009000000A000A000A000A000A000A000A000A10
:1000A000000A000A000A000A000A000A000A000A00
:1000B000000A000A000A000A000A000A000A000AF0
:1000C000000A000A000A000A000A000A000A000AE0
:1000D000000A000A000A000A000A000A000A000AD0
:1000E000000A000A000A000A000A000A000A000AC0
:1000F000000A000A000A000A000A000A000A000AB0
:10010000000A000A000A000A000A000A000A000A9F
:10011000000A000A000A000A000A000A000A000A8F
:10012000000A000A000A000A000A000A000A000A7F
:10013000000A000A000A000A000A000A000A000A6F
:10014000000A000A000A000A000A000A000A000A5F
:10015000000A000A000A000A000A000A000A000A4F
:10016000000A000A000A000A000A000A000A000A3F
:10017000000A000A000A000A000A000A000A000A2F
:10018000000A000A000A000A000A000A000A000A1F
:10019000000A000A000A000A000A000A000A000A0F
:1001A000000A000A000A000A000A000A000A000AFF
:1001B000000A000A000A000A000A000A000A000AEF
:1001C000000A000A000A000A000A000A000A000ADF
:1001D000000A000A000A000A000A000A000A000ACF
:1001E000000A000A000A000A000A000A000A000ABF
:1001F000000A000A000A000A000A000A000A000AAF
:00000001FF
