:020000040000FA
:10000000FF0FFF0FEF0FEF0FF70FF70FFF0FFF0FB0
:10001000FF0FFF0FFB0FFB0FFC0FFC0FFD0FFD0F82
:10002000FE0FFE0FFF0FFF0F060006000500050084
:1000300004000400030003000200020001000100AC
:100040000000000007000700050005000400040090
:100050000300030002000200010001000000000094
:100060000700070006000600050005000400040064
:100070000300030002000200010001000000000074
:00000001FF
