:10000000FF3FFF3F7F3F7F3F9F009F00BF15BF1512
:10001000DF2ADF2AFF3FFF3FFF3FFF3FEF3FEF3F7A
:10002000FF3FFF3FF73FF73FF83FF83FF93FF93F0A
:10003000FA3FFA3FFC3FFC3FFC3FFC3FFD3FFD3FEA
:10004000FE3FFE3FFE3FFE3FFF3FFF3F0500060035
:100050008F000500040004000300030002000200FA
:100060000100010000000000040004000300030080
:10007000020002000100010000000000070006006D
:100080000500050004000400030003000200020054
:08009000010001000000000066
:00000001FF
