:020000040000FA
:060000001234AF00B00055
:0203FE000000FD
:020400000000FA
:0241FE0022009D
:104200003300330033003300330033003300330016
:104210003300330033003300330033003300330006
:1042200033003300330033003300330033003300F6
:1042300033003300330033003300330033003300E6
:1042400033003300330033003300330033003300D6
:1042500033003300330033003300330033003300C6
:1042600033003300330033003300330033003300B6
:1042700033003300330033003300330033003300A6
:024280004400F8
:00000001FF
